{
  "contractName": "Voting",
  "abi": [
    {
      "inputs": [],
      "payable": false,
      "stateMutability": "nonpayable",
      "type": "constructor"
    },
    {
      "anonymous": false,
      "inputs": [
        {
          "indexed": false,
          "internalType": "string",
          "name": "_for",
          "type": "string"
        },
        {
          "indexed": false,
          "internalType": "address",
          "name": "_by",
          "type": "address"
        }
      ],
      "name": "VoteMade",
      "type": "event"
    },
    {
      "constant": true,
      "inputs": [
        {
          "internalType": "uint256",
          "name": "",
          "type": "uint256"
        }
      ],
      "name": "candidates",
      "outputs": [
        {
          "internalType": "string",
          "name": "",
          "type": "string"
        }
      ],
      "payable": false,
      "stateMutability": "view",
      "type": "function"
    },
    {
      "constant": true,
      "inputs": [
        {
          "internalType": "address",
          "name": "",
          "type": "address"
        }
      ],
      "name": "hasVoted",
      "outputs": [
        {
          "internalType": "uint256",
          "name": "",
          "type": "uint256"
        }
      ],
      "payable": false,
      "stateMutability": "view",
      "type": "function"
    },
    {
      "constant": true,
      "inputs": [
        {
          "internalType": "uint256",
          "name": "",
          "type": "uint256"
        }
      ],
      "name": "votes",
      "outputs": [
        {
          "internalType": "uint256",
          "name": "",
          "type": "uint256"
        }
      ],
      "payable": false,
      "stateMutability": "view",
      "type": "function"
    },
    {
      "constant": false,
      "inputs": [
        {
          "internalType": "uint256",
          "name": "_candidateId",
          "type": "uint256"
        }
      ],
      "name": "vote",
      "outputs": [],
      "payable": false,
      "stateMutability": "nonpayable",
      "type": "function"
    }
  ],
  "bytecode": "0x608060405234801561001057600080fd5b506040518060400160405280600d81526020017f4d69636861656c2053636f74740000000000000000000000000000000000000081525060008060018152602001908152602001600020908051906020019061006d929190610104565b506040518060400160405280600e81526020017f44776967687420536368727574650000000000000000000000000000000000008152506000806002815260200190815260200160002090805190602001906100ca929190610104565b50600060016000600181526020019081526020016000208190555060006001600060028152602001908152602001600020819055506101a9565b828054600181600116156101000203166002900490600052602060002090601f016020900481019282601f1061014557805160ff1916838001178555610173565b82800160010185558215610173579182015b82811115610172578251825591602001919060010190610157565b5b5090506101809190610184565b5090565b6101a691905b808211156101a257600081600090555060010161018a565b5090565b90565b61048a806101b86000396000f3fe608060405234801561001057600080fd5b506004361061004c5760003560e01c80630121b93f1461005157806309eef43e1461007f5780633477ee2e146100d75780635df813301461017e575b600080fd5b61007d6004803603602081101561006757600080fd5b81019080803590602001909291905050506101c0565b005b6100c16004803603602081101561009557600080fd5b81019080803573ffffffffffffffffffffffffffffffffffffffff169060200190929190505050610375565b6040518082815260200191505060405180910390f35b610103600480360360208110156100ed57600080fd5b810190808035906020019092919050505061038d565b6040518080602001828103825283818151815260200191508051906020019080838360005b83811015610143578082015181840152602081019050610128565b50505050905090810190601f1680156101705780820380516001836020036101000a031916815260200191505b509250505060405180910390f35b6101aa6004803603602081101561019457600080fd5b810190808035906020019092919050505061043d565b6040518082815260200191505060405180910390f35b6000600260003373ffffffffffffffffffffffffffffffffffffffff1673ffffffffffffffffffffffffffffffffffffffff168152602001908152602001600020541461020c57600080fd5b60016000828152602001908152602001600020600081548092919060010191905055506001600260003373ffffffffffffffffffffffffffffffffffffffff1673ffffffffffffffffffffffffffffffffffffffff168152602001908152602001600020819055507f4107b787b6b05f71b9f9c9572ddfea99511580bc164939def402984eb63144c86000808381526020019081526020016000203360405180806020018373ffffffffffffffffffffffffffffffffffffffff1673ffffffffffffffffffffffffffffffffffffffff1681526020018281038252848181546001816001161561010002031660029004815260200191508054600181600116156101000203166002900480156103635780601f1061033857610100808354040283529160200191610363565b820191906000526020600020905b81548152906001019060200180831161034657829003601f168201915b5050935050505060405180910390a150565b60026020528060005260406000206000915090505481565b60006020528060005260406000206000915090508054600181600116156101000203166002900480601f0160208091040260200160405190810160405280929190818152602001828054600181600116156101000203166002900480156104355780601f1061040a57610100808354040283529160200191610435565b820191906000526020600020905b81548152906001019060200180831161041857829003601f168201915b505050505081565b6001602052806000526040600020600091509050548156fea265627a7a72315820909a56e9cab0b3c1014045c49cac05909be681ba74b6ec5466ed1b83364e700164736f6c63430005100032",
  "source": "// SPDX-License-Identifier: MIT\npragma solidity >=0.4.22 <0.9.0;\n\ncontract Voting {\n  mapping(uint256 => string) public candidates;\n  mapping(uint256 => uint256) public votes;\n  mapping(address => uint256) public hasVoted;\n\n  event VoteMade(string _for, address _by);\n\n  constructor() public {\n    // set the 2 candidates - Michael Scott, Dwight Schrute\n    candidates[1] = \"Michael Scott\";\n    candidates[2] = \"Dwight Schrute\";\n    votes[1] = 0;\n    votes[2] = 0;\n  }\n\n  function vote(uint256 _candidateId) public {\n    require(hasVoted[msg.sender] == 0);\n\n    votes[_candidateId]++;\n    hasVoted[msg.sender] = 1;\n\n    emit VoteMade(candidates[_candidateId], msg.sender);\n  }\n}\n",
  "sourcePath": "C:\\Users\\gonel\\OneDrive\\Documents\\Github\\Voting-DApp\\contracts\\Voting.sol",
  "compiler": {
    "name": "solc",
    "version": "0.5.16+commit.9c3226ce.Emscripten.clang"
  },
  "schemaVersion": "3.4.3",
  "updatedAt": "2021-12-04T20:45:09.849Z",
  "devdoc": {
    "methods": {}
  },
  "userdoc": {
    "methods": {}
  }
}